:100000000C942A000C943F000C943F000C943F0089
:100010000C943F000C943F000C943F000C943F0064
:100020000C943F000C943F000C943F000C943F0054
:100030000C943F000C943F000C943F000C943F0044
:100040000C943F000C943F000C943F000C943F0034
:100050000C943F0011241FBECFE5D8E0DEBFCDBF1A
:1000600010E0A0E6B0E0EAEEF1E002C005900D92EB
:10007000AA36B107D9F70E9441000C94F3000C9402
:100080000000CF93DF93CDB7DEB72A970FB6F89471
:10009000DEBF0FBECDBF8AE0E0E6F0E0DE011196E4
:1000A00001900D928A95E1F787E08ABB8FEF84BBC0
:1000B00081BB84E08BBB9AE02DC087E69802812D3E
:1000C00011248595859597FD8395E1E0F0E0EC0F8F
:1000D000FD1FE80FF11D87FDFA95208125BB880FD4
:1000E000282F220F220F820F292F281BE1E0F0E09A
:1000F000EC0FFD1FE20FF11D27FDFA95808182BBF9
:100100003FEF89E628E1315080402040E1F700C010
:100110000000915019168CF282E08BBB93E02DC049
:1001200087E69802812D11248595859597FD839505
:10013000E1E0F0E0EC0FFD1FE80FF11D87FDFA95FF
:10014000208125BB880F282F220F220F820F392FE5
:10015000381BE1E0F0E0EC0FFD1FE30FF11D37FD70
:10016000FA95808182BB8FEF29E638E181502040EB
:100170003040E1F700C00000915019168CF281E088
:100180008BBB9AE02DC087E69802812D11248595BE
:10019000859597FD8395E1E0F0E0EC0FFD1FE80FFA
:1001A000F11D87FDFA95208125BB880F282F220F8E
:1001B000220F820F292F281BE1E0F0E0EC0FFD1F3A
:1001C000E20FF11D27FDFA95808182BB3FEF89E6A2
:1001D00028E1315080402040E1F700C000009150FC
:0A01E00019168CF266CFF894FFCFD9
:0A01EA003F065B4F666D7D077F6FD7
:00000001FF
